{
  "_format": "hh-sol-artifact-1",
  "contractName": "ArtNFTWithRoyalties",
  "sourceName": "contracts/ArtNFTWithRoyalties.sol",
  "abi": [
    {
      "inputs": [],
      "stateMutability": "nonpayable",
      "type": "constructor"
    },
    {
      "anonymous": false,
      "inputs": [
        {
          "indexed": true,
          "internalType": "address",
          "name": "owner",
          "type": "address"
        },
        {
          "indexed": true,
          "internalType": "address",
          "name": "approved",
          "type": "address"
        },
        {
          "indexed": true,
          "internalType": "uint256",
          "name": "tokenId",
          "type": "uint256"
        }
      ],
      "name": "Approval",
      "type": "event"
    },
    {
      "anonymous": false,
      "inputs": [
        {
          "indexed": true,
          "internalType": "address",
          "name": "owner",
          "type": "address"
        },
        {
          "indexed": true,
          "internalType": "address",
          "name": "operator",
          "type": "address"
        },
        {
          "indexed": false,
          "internalType": "bool",
          "name": "approved",
          "type": "bool"
        }
      ],
      "name": "ApprovalForAll",
      "type": "event"
    },
    {
      "anonymous": false,
      "inputs": [
        {
          "indexed": false,
          "internalType": "uint256",
          "name": "_fromTokenId",
          "type": "uint256"
        },
        {
          "indexed": false,
          "internalType": "uint256",
          "name": "_toTokenId",
          "type": "uint256"
        }
      ],
      "name": "BatchMetadataUpdate",
      "type": "event"
    },
    {
      "anonymous": false,
      "inputs": [
        {
          "indexed": false,
          "internalType": "uint256",
          "name": "_tokenId",
          "type": "uint256"
        }
      ],
      "name": "MetadataUpdate",
      "type": "event"
    },
    {
      "anonymous": false,
      "inputs": [
        {
          "indexed": true,
          "internalType": "address",
          "name": "previousOwner",
          "type": "address"
        },
        {
          "indexed": true,
          "internalType": "address",
          "name": "newOwner",
          "type": "address"
        }
      ],
      "name": "OwnershipTransferred",
      "type": "event"
    },
    {
      "anonymous": false,
      "inputs": [
        {
          "indexed": true,
          "internalType": "address",
          "name": "from",
          "type": "address"
        },
        {
          "indexed": true,
          "internalType": "address",
          "name": "to",
          "type": "address"
        },
        {
          "indexed": true,
          "internalType": "uint256",
          "name": "tokenId",
          "type": "uint256"
        }
      ],
      "name": "Transfer",
      "type": "event"
    },
    {
      "inputs": [
        {
          "internalType": "address",
          "name": "to",
          "type": "address"
        },
        {
          "internalType": "uint256",
          "name": "tokenId",
          "type": "uint256"
        }
      ],
      "name": "approve",
      "outputs": [],
      "stateMutability": "nonpayable",
      "type": "function"
    },
    {
      "inputs": [
        {
          "internalType": "address",
          "name": "owner",
          "type": "address"
        }
      ],
      "name": "balanceOf",
      "outputs": [
        {
          "internalType": "uint256",
          "name": "",
          "type": "uint256"
        }
      ],
      "stateMutability": "view",
      "type": "function"
    },
    {
      "inputs": [
        {
          "internalType": "uint256",
          "name": "tokenId",
          "type": "uint256"
        }
      ],
      "name": "getApproved",
      "outputs": [
        {
          "internalType": "address",
          "name": "",
          "type": "address"
        }
      ],
      "stateMutability": "view",
      "type": "function"
    },
    {
      "inputs": [
        {
          "internalType": "address",
          "name": "owner",
          "type": "address"
        },
        {
          "internalType": "address",
          "name": "operator",
          "type": "address"
        }
      ],
      "name": "isApprovedForAll",
      "outputs": [
        {
          "internalType": "bool",
          "name": "",
          "type": "bool"
        }
      ],
      "stateMutability": "view",
      "type": "function"
    },
    {
      "inputs": [
        {
          "internalType": "address",
          "name": "to",
          "type": "address"
        },
        {
          "internalType": "string",
          "name": "uri",
          "type": "string"
        },
        {
          "internalType": "uint256",
          "name": "royalty",
          "type": "uint256"
        }
      ],
      "name": "mintNFT",
      "outputs": [
        {
          "internalType": "uint256",
          "name": "",
          "type": "uint256"
        }
      ],
      "stateMutability": "nonpayable",
      "type": "function"
    },
    {
      "inputs": [],
      "name": "name",
      "outputs": [
        {
          "internalType": "string",
          "name": "",
          "type": "string"
        }
      ],
      "stateMutability": "view",
      "type": "function"
    },
    {
      "inputs": [],
      "name": "owner",
      "outputs": [
        {
          "internalType": "address",
          "name": "",
          "type": "address"
        }
      ],
      "stateMutability": "view",
      "type": "function"
    },
    {
      "inputs": [
        {
          "internalType": "uint256",
          "name": "tokenId",
          "type": "uint256"
        }
      ],
      "name": "ownerOf",
      "outputs": [
        {
          "internalType": "address",
          "name": "",
          "type": "address"
        }
      ],
      "stateMutability": "view",
      "type": "function"
    },
    {
      "inputs": [
        {
          "internalType": "address",
          "name": "recipient",
          "type": "address"
        },
        {
          "internalType": "string",
          "name": "uri",
          "type": "string"
        },
        {
          "internalType": "uint256",
          "name": "royalty",
          "type": "uint256"
        },
        {
          "internalType": "bytes",
          "name": "signature",
          "type": "bytes"
        }
      ],
      "name": "redeem",
      "outputs": [
        {
          "internalType": "uint256",
          "name": "",
          "type": "uint256"
        }
      ],
      "stateMutability": "nonpayable",
      "type": "function"
    },
    {
      "inputs": [],
      "name": "renounceOwnership",
      "outputs": [],
      "stateMutability": "nonpayable",
      "type": "function"
    },
    {
      "inputs": [
        {
          "internalType": "uint256",
          "name": "tokenId",
          "type": "uint256"
        },
        {
          "internalType": "uint256",
          "name": "salePrice",
          "type": "uint256"
        }
      ],
      "name": "royaltyInfo",
      "outputs": [
        {
          "internalType": "address",
          "name": "",
          "type": "address"
        },
        {
          "internalType": "uint256",
          "name": "",
          "type": "uint256"
        }
      ],
      "stateMutability": "view",
      "type": "function"
    },
    {
      "inputs": [
        {
          "internalType": "address",
          "name": "from",
          "type": "address"
        },
        {
          "internalType": "address",
          "name": "to",
          "type": "address"
        },
        {
          "internalType": "uint256",
          "name": "tokenId",
          "type": "uint256"
        }
      ],
      "name": "safeTransferFrom",
      "outputs": [],
      "stateMutability": "nonpayable",
      "type": "function"
    },
    {
      "inputs": [
        {
          "internalType": "address",
          "name": "from",
          "type": "address"
        },
        {
          "internalType": "address",
          "name": "to",
          "type": "address"
        },
        {
          "internalType": "uint256",
          "name": "tokenId",
          "type": "uint256"
        },
        {
          "internalType": "bytes",
          "name": "data",
          "type": "bytes"
        }
      ],
      "name": "safeTransferFrom",
      "outputs": [],
      "stateMutability": "nonpayable",
      "type": "function"
    },
    {
      "inputs": [
        {
          "internalType": "address",
          "name": "operator",
          "type": "address"
        },
        {
          "internalType": "bool",
          "name": "approved",
          "type": "bool"
        }
      ],
      "name": "setApprovalForAll",
      "outputs": [],
      "stateMutability": "nonpayable",
      "type": "function"
    },
    {
      "inputs": [
        {
          "internalType": "bytes4",
          "name": "interfaceId",
          "type": "bytes4"
        }
      ],
      "name": "supportsInterface",
      "outputs": [
        {
          "internalType": "bool",
          "name": "",
          "type": "bool"
        }
      ],
      "stateMutability": "view",
      "type": "function"
    },
    {
      "inputs": [],
      "name": "symbol",
      "outputs": [
        {
          "internalType": "string",
          "name": "",
          "type": "string"
        }
      ],
      "stateMutability": "view",
      "type": "function"
    },
    {
      "inputs": [
        {
          "internalType": "uint256",
          "name": "tokenId",
          "type": "uint256"
        }
      ],
      "name": "tokenURI",
      "outputs": [
        {
          "internalType": "string",
          "name": "",
          "type": "string"
        }
      ],
      "stateMutability": "view",
      "type": "function"
    },
    {
      "inputs": [
        {
          "internalType": "address",
          "name": "from",
          "type": "address"
        },
        {
          "internalType": "address",
          "name": "to",
          "type": "address"
        },
        {
          "internalType": "uint256",
          "name": "tokenId",
          "type": "uint256"
        }
      ],
      "name": "transferFrom",
      "outputs": [],
      "stateMutability": "nonpayable",
      "type": "function"
    },
    {
      "inputs": [
        {
          "internalType": "address",
          "name": "newOwner",
          "type": "address"
        }
      ],
      "name": "transferOwnership",
      "outputs": [],
      "stateMutability": "nonpayable",
      "type": "function"
    }
  ],
  "bytecode": "0x608060405234801561001057600080fd5b506040518060400160405280600381526020017f4d425700000000000000000000000000000000000000000000000000000000008152506040518060400160405280600881526020017f4152544272616e64000000000000000000000000000000000000000000000000815250816000908161008c91906103de565b50806001908161009c91906103de565b5050506100bb6100b06100c060201b60201c565b6100c860201b60201c565b6104b0565b600033905090565b6000600760009054906101000a900473ffffffffffffffffffffffffffffffffffffffff16905081600760006101000a81548173ffffffffffffffffffffffffffffffffffffffff021916908373ffffffffffffffffffffffffffffffffffffffff1602179055508173ffffffffffffffffffffffffffffffffffffffff168173ffffffffffffffffffffffffffffffffffffffff167f8be0079c531659141344cd1fd0a4f28419497f9722a3daafe3b4186f6b6457e060405160405180910390a35050565b600081519050919050565b7f4e487b7100000000000000000000000000000000000000000000000000000000600052604160045260246000fd5b7f4e487b7100000000000000000000000000000000000000000000000000000000600052602260045260246000fd5b6000600282049050600182168061020f57607f821691505b602082108103610222576102216101c8565b5b50919050565b60008190508160005260206000209050919050565b60006020601f8301049050919050565b600082821b905092915050565b60006008830261028a7fffffffffffffffffffffffffffffffffffffffffffffffffffffffffffffffff8261024d565b610294868361024d565b95508019841693508086168417925050509392505050565b6000819050919050565b6000819050919050565b60006102db6102d66102d1846102ac565b6102b6565b6102ac565b9050919050565b6000819050919050565b6102f5836102c0565b610309610301826102e2565b84845461025a565b825550505050565b600090565b61031e610311565b6103298184846102ec565b505050565b5b8181101561034d57610342600082610316565b60018101905061032f565b5050565b601f8211156103925761036381610228565b61036c8461023d565b8101602085101561037b578190505b61038f6103878561023d565b83018261032e565b50505b505050565b600082821c905092915050565b60006103b560001984600802610397565b1980831691505092915050565b60006103ce83836103a4565b9150826002028217905092915050565b6103e78261018e565b67ffffffffffffffff811115610400576103ff610199565b5b61040a82546101f7565b610415828285610351565b600060209050601f8311600181146104485760008415610436578287015190505b61044085826103c2565b8655506104a8565b601f19841661045686610228565b60005b8281101561047e57848901518255600182019150602085019450602081019050610459565b8683101561049b5784890151610497601f8916826103a4565b8355505b6001600288020188555050505b505050505050565b613c7a806104bf6000396000f3fe608060405234801561001057600080fd5b50600436106101215760003560e01c80636352211e116100ad578063a22cb46511610071578063a22cb4651461032f578063b88d4fde1461034b578063c87b56dd14610367578063e985e9c514610397578063f2fde38b146103c757610121565b80636352211e1461028957806370a08231146102b9578063715018a6146102e95780638da5cb5b146102f357806395d89b411461031157610121565b8063095ea7b3116100f4578063095ea7b3146101d45780631a1b1910146101f057806323b872dd146102205780632a55205a1461023c57806342842e0e1461026d57610121565b806301ffc9a71461012657806306fdde0314610156578063081812fc1461017457806308598df0146101a4575b600080fd5b610140600480360381019061013b91906123db565b6103e3565b60405161014d9190612423565b60405180910390f35b61015e61045d565b60405161016b91906124ce565b60405180910390f35b61018e60048036038101906101899190612526565b6104ef565b60405161019b9190612594565b60405180910390f35b6101be60048036038101906101b99190612710565b610535565b6040516101cb919061278e565b60405180910390f35b6101ee60048036038101906101e991906127a9565b610628565b005b61020a6004803603810190610205919061288a565b61073f565b604051610217919061278e565b60405180910390f35b61023a60048036038101906102359190612929565b6108ed565b005b6102566004803603810190610251919061297c565b61094d565b6040516102649291906129bc565b60405180910390f35b61028760048036038101906102829190612929565b610a38565b005b6102a3600480360381019061029e9190612526565b610a58565b6040516102b09190612594565b60405180910390f35b6102d360048036038101906102ce91906129e5565b610ade565b6040516102e0919061278e565b60405180910390f35b6102f1610b95565b005b6102fb610ba9565b6040516103089190612594565b60405180910390f35b610319610bd3565b60405161032691906124ce565b60405180910390f35b61034960048036038101906103449190612a3e565b610c65565b005b61036560048036038101906103609190612a7e565b610c7b565b005b610381600480360381019061037c9190612526565b610cdd565b60405161038e91906124ce565b60405180910390f35b6103b160048036038101906103ac9190612b01565b610cef565b6040516103be9190612423565b60405180910390f35b6103e160048036038101906103dc91906129e5565b610d83565b005b60007f2a55205a000000000000000000000000000000000000000000000000000000007bffffffffffffffffffffffffffffffffffffffffffffffffffffffff1916827bffffffffffffffffffffffffffffffffffffffffffffffffffffffff19161480610456575061045582610e06565b5b9050919050565b60606000805461046c90612b70565b80601f016020809104026020016040519081016040528092919081815260200182805461049890612b70565b80156104e55780601f106104ba576101008083540402835291602001916104e5565b820191906000526020600020905b8154815290600101906020018083116104c857829003601f168201915b5050505050905090565b60006104fa82610e67565b6004600083815260200190815260200160002060009054906101000a900473ffffffffffffffffffffffffffffffffffffffff169050919050565b600061053f610eb2565b612710821115610584576040517f08c379a000000000000000000000000000000000000000000000000000000000815260040161057b90612c13565b60405180910390fd5b60006008600081548092919061059990612c62565b9190505590506105a98582610f30565b6105b38185610f4e565b846009600083815260200190815260200160002060006101000a81548173ffffffffffffffffffffffffffffffffffffffff021916908373ffffffffffffffffffffffffffffffffffffffff16021790555082600a600083815260200190815260200160002081905550809150509392505050565b600061063382610a58565b90508073ffffffffffffffffffffffffffffffffffffffff168373ffffffffffffffffffffffffffffffffffffffff16036106a3576040517f08c379a000000000000000000000000000000000000000000000000000000000815260040161069a90612d1c565b60405180910390fd5b8073ffffffffffffffffffffffffffffffffffffffff166106c2610ff2565b73ffffffffffffffffffffffffffffffffffffffff1614806106f157506106f0816106eb610ff2565b610cef565b5b610730576040517f08c379a000000000000000000000000000000000000000000000000000000000815260040161072790612dae565b60405180910390fd5b61073a8383610ffa565b505050565b6000612710831115610786576040517f08c379a000000000000000000000000000000000000000000000000000000000815260040161077d90612e1a565b60405180910390fd5b600085858560405160200161079d93929190612edf565b60405160208183030381529060405280519060200120905060006107c0826110b3565b905060006107ce82866110e9565b90506107d8610ba9565b73ffffffffffffffffffffffffffffffffffffffff168173ffffffffffffffffffffffffffffffffffffffff1614610845576040517f08c379a000000000000000000000000000000000000000000000000000000000815260040161083c90612f64565b60405180910390fd5b60006008600081548092919061085a90612c62565b91905055905061086a8982610f30565b6108748189610f4e565b886009600083815260200190815260200160002060006101000a81548173ffffffffffffffffffffffffffffffffffffffff021916908373ffffffffffffffffffffffffffffffffffffffff16021790555086600a60008381526020019081526020016000208190555080945050505050949350505050565b6108fe6108f8610ff2565b82611110565b61093d576040517f08c379a000000000000000000000000000000000000000000000000000000000815260040161093490612ff6565b60405180910390fd5b6109488383836111a5565b505050565b600080600073ffffffffffffffffffffffffffffffffffffffff1661097185610a58565b73ffffffffffffffffffffffffffffffffffffffff16036109c7576040517f08c379a00000000000000000000000000000000000000000000000000000000081526004016109be90613062565b60405180910390fd5b600061271084600a6000888152602001908152602001600020546109eb9190613082565b6109f591906130f3565b90506009600086815260200190815260200160002060009054906101000a900473ffffffffffffffffffffffffffffffffffffffff168192509250509250929050565b610a5383838360405180602001604052806000815250610c7b565b505050565b600080610a648361149e565b9050600073ffffffffffffffffffffffffffffffffffffffff168173ffffffffffffffffffffffffffffffffffffffff1603610ad5576040517f08c379a0000000000000000000000000000000000000000000000000000000008152600401610acc90613170565b60405180910390fd5b80915050919050565b60008073ffffffffffffffffffffffffffffffffffffffff168273ffffffffffffffffffffffffffffffffffffffff1603610b4e576040517f08c379a0000000000000000000000000000000000000000000000000000000008152600401610b4590613202565b60405180910390fd5b600360008373ffffffffffffffffffffffffffffffffffffffff1673ffffffffffffffffffffffffffffffffffffffff168152602001908152602001600020549050919050565b610b9d610eb2565b610ba760006114db565b565b6000600760009054906101000a900473ffffffffffffffffffffffffffffffffffffffff16905090565b606060018054610be290612b70565b80601f0160208091040260200160405190810160405280929190818152602001828054610c0e90612b70565b8015610c5b5780601f10610c3057610100808354040283529160200191610c5b565b820191906000526020600020905b815481529060010190602001808311610c3e57829003601f168201915b5050505050905090565b610c77610c70610ff2565b83836115a1565b5050565b610c8c610c86610ff2565b83611110565b610ccb576040517f08c379a0000000000000000000000000000000000000000000000000000000008152600401610cc290612ff6565b60405180910390fd5b610cd78484848461170d565b50505050565b6060610ce882611769565b9050919050565b6000600560008473ffffffffffffffffffffffffffffffffffffffff1673ffffffffffffffffffffffffffffffffffffffff16815260200190815260200160002060008373ffffffffffffffffffffffffffffffffffffffff1673ffffffffffffffffffffffffffffffffffffffff16815260200190815260200160002060009054906101000a900460ff16905092915050565b610d8b610eb2565b600073ffffffffffffffffffffffffffffffffffffffff168173ffffffffffffffffffffffffffffffffffffffff1603610dfa576040517f08c379a0000000000000000000000000000000000000000000000000000000008152600401610df190613294565b60405180910390fd5b610e03816114db565b50565b6000634906490660e01b7bffffffffffffffffffffffffffffffffffffffffffffffffffffffff1916827bffffffffffffffffffffffffffffffffffffffffffffffffffffffff19161480610e605750610e5f8261187b565b5b9050919050565b610e708161195d565b610eaf576040517f08c379a0000000000000000000000000000000000000000000000000000000008152600401610ea690613170565b60405180910390fd5b50565b610eba610ff2565b73ffffffffffffffffffffffffffffffffffffffff16610ed8610ba9565b73ffffffffffffffffffffffffffffffffffffffff1614610f2e576040517f08c379a0000000000000000000000000000000000000000000000000000000008152600401610f2590613300565b60405180910390fd5b565b610f4a82826040518060200160405280600081525061199e565b5050565b610f578261195d565b610f96576040517f08c379a0000000000000000000000000000000000000000000000000000000008152600401610f8d90613392565b60405180910390fd5b80600660008481526020019081526020016000209081610fb6919061355e565b507ff8e1a15aba9398e019f0b49df1a4fde98ee17ae345cb5f6b5e2c27f5033e8ce782604051610fe6919061278e565b60405180910390a15050565b600033905090565b816004600083815260200190815260200160002060006101000a81548173ffffffffffffffffffffffffffffffffffffffff021916908373ffffffffffffffffffffffffffffffffffffffff160217905550808273ffffffffffffffffffffffffffffffffffffffff1661106d83610a58565b73ffffffffffffffffffffffffffffffffffffffff167f8c5be1e5ebec7d5bd14f71427d1e84f3dd0314c0f7b2291e5b200ac8c7c3b92560405160405180910390a45050565b60007f19457468657265756d205369676e6564204d6573736167653a0a33320000000060005281601c52603c6000209050919050565b60008060006110f885856119f9565b9150915061110581611a4a565b819250505092915050565b60008061111c83610a58565b90508073ffffffffffffffffffffffffffffffffffffffff168473ffffffffffffffffffffffffffffffffffffffff16148061115e575061115d8185610cef565b5b8061119c57508373ffffffffffffffffffffffffffffffffffffffff16611184846104ef565b73ffffffffffffffffffffffffffffffffffffffff16145b91505092915050565b8273ffffffffffffffffffffffffffffffffffffffff166111c582610a58565b73ffffffffffffffffffffffffffffffffffffffff161461121b576040517f08c379a0000000000000000000000000000000000000000000000000000000008152600401611212906136a2565b60405180910390fd5b600073ffffffffffffffffffffffffffffffffffffffff168273ffffffffffffffffffffffffffffffffffffffff160361128a576040517f08c379a000000000000000000000000000000000000000000000000000000000815260040161128190613734565b60405180910390fd5b6112978383836001611bb0565b8273ffffffffffffffffffffffffffffffffffffffff166112b782610a58565b73ffffffffffffffffffffffffffffffffffffffff161461130d576040517f08c379a0000000000000000000000000000000000000000000000000000000008152600401611304906136a2565b60405180910390fd5b6004600082815260200190815260200160002060006101000a81549073ffffffffffffffffffffffffffffffffffffffff02191690556001600360008573ffffffffffffffffffffffffffffffffffffffff1673ffffffffffffffffffffffffffffffffffffffff168152602001908152602001600020600082825403925050819055506001600360008473ffffffffffffffffffffffffffffffffffffffff1673ffffffffffffffffffffffffffffffffffffffff16815260200190815260200160002060008282540192505081905550816002600083815260200190815260200160002060006101000a81548173ffffffffffffffffffffffffffffffffffffffff021916908373ffffffffffffffffffffffffffffffffffffffff160217905550808273ffffffffffffffffffffffffffffffffffffffff168473ffffffffffffffffffffffffffffffffffffffff167fddf252ad1be2c89b69c2b068fc378daa952ba7f163c4a11628f55a4df523b3ef60405160405180910390a46114998383836001611bb6565b505050565b60006002600083815260200190815260200160002060009054906101000a900473ffffffffffffffffffffffffffffffffffffffff169050919050565b6000600760009054906101000a900473ffffffffffffffffffffffffffffffffffffffff16905081600760006101000a81548173ffffffffffffffffffffffffffffffffffffffff021916908373ffffffffffffffffffffffffffffffffffffffff1602179055508173ffffffffffffffffffffffffffffffffffffffff168173ffffffffffffffffffffffffffffffffffffffff167f8be0079c531659141344cd1fd0a4f28419497f9722a3daafe3b4186f6b6457e060405160405180910390a35050565b8173ffffffffffffffffffffffffffffffffffffffff168373ffffffffffffffffffffffffffffffffffffffff160361160f576040517f08c379a0000000000000000000000000000000000000000000000000000000008152600401611606906137a0565b60405180910390fd5b80600560008573ffffffffffffffffffffffffffffffffffffffff1673ffffffffffffffffffffffffffffffffffffffff16815260200190815260200160002060008473ffffffffffffffffffffffffffffffffffffffff1673ffffffffffffffffffffffffffffffffffffffff16815260200190815260200160002060006101000a81548160ff0219169083151502179055508173ffffffffffffffffffffffffffffffffffffffff168373ffffffffffffffffffffffffffffffffffffffff167f17307eab39ab6107e8899845ad3d59bd9653f200f220920489ca2b5937696c31836040516117009190612423565b60405180910390a3505050565b6117188484846111a5565b61172484848484611bbc565b611763576040517f08c379a000000000000000000000000000000000000000000000000000000000815260040161175a90613832565b60405180910390fd5b50505050565b606061177482610e67565b600060066000848152602001908152602001600020805461179490612b70565b80601f01602080910402602001604051908101604052809291908181526020018280546117c090612b70565b801561180d5780601f106117e25761010080835404028352916020019161180d565b820191906000526020600020905b8154815290600101906020018083116117f057829003601f168201915b50505050509050600061181e611d43565b90506000815103611833578192505050611876565b600082511115611868578082604051602001611850929190613852565b60405160208183030381529060405292505050611876565b61187184611d5a565b925050505b919050565b60007f80ac58cd000000000000000000000000000000000000000000000000000000007bffffffffffffffffffffffffffffffffffffffffffffffffffffffff1916827bffffffffffffffffffffffffffffffffffffffffffffffffffffffff1916148061194657507f5b5e139f000000000000000000000000000000000000000000000000000000007bffffffffffffffffffffffffffffffffffffffffffffffffffffffff1916827bffffffffffffffffffffffffffffffffffffffffffffffffffffffff1916145b80611956575061195582611dc2565b5b9050919050565b60008073ffffffffffffffffffffffffffffffffffffffff1661197f8361149e565b73ffffffffffffffffffffffffffffffffffffffff1614159050919050565b6119a88383611e2c565b6119b56000848484611bbc565b6119f4576040517f08c379a00000000000000000000000000000000000000000000000000000000081526004016119eb90613832565b60405180910390fd5b505050565b6000806041835103611a3a5760008060006020860151925060408601519150606086015160001a9050611a2e87828585612049565b94509450505050611a43565b60006002915091505b9250929050565b60006004811115611a5e57611a5d613876565b5b816004811115611a7157611a70613876565b5b0315611bad5760016004811115611a8b57611a8a613876565b5b816004811115611a9e57611a9d613876565b5b03611ade576040517f08c379a0000000000000000000000000000000000000000000000000000000008152600401611ad5906138f1565b60405180910390fd5b60026004811115611af257611af1613876565b5b816004811115611b0557611b04613876565b5b03611b45576040517f08c379a0000000000000000000000000000000000000000000000000000000008152600401611b3c9061395d565b60405180910390fd5b60036004811115611b5957611b58613876565b5b816004811115611b6c57611b6b613876565b5b03611bac576040517f08c379a0000000000000000000000000000000000000000000000000000000008152600401611ba3906139ef565b60405180910390fd5b5b50565b50505050565b50505050565b6000611bdd8473ffffffffffffffffffffffffffffffffffffffff1661212b565b15611d36578373ffffffffffffffffffffffffffffffffffffffff1663150b7a02611c06610ff2565b8786866040518563ffffffff1660e01b8152600401611c289493929190613a64565b6020604051808303816000875af1925050508015611c6457506040513d601f19601f82011682018060405250810190611c619190613ac5565b60015b611ce6573d8060008114611c94576040519150601f19603f3d011682016040523d82523d6000602084013e611c99565b606091505b506000815103611cde576040517f08c379a0000000000000000000000000000000000000000000000000000000008152600401611cd590613832565b60405180910390fd5b805181602001fd5b63150b7a0260e01b7bffffffffffffffffffffffffffffffffffffffffffffffffffffffff1916817bffffffffffffffffffffffffffffffffffffffffffffffffffffffff191614915050611d3b565b600190505b949350505050565b606060405180602001604052806000815250905090565b6060611d6582610e67565b6000611d6f611d43565b90506000815111611d8f5760405180602001604052806000815250611dba565b80611d998461214e565b604051602001611daa929190613852565b6040516020818303038152906040525b915050919050565b60007f01ffc9a7000000000000000000000000000000000000000000000000000000007bffffffffffffffffffffffffffffffffffffffffffffffffffffffff1916827bffffffffffffffffffffffffffffffffffffffffffffffffffffffff1916149050919050565b600073ffffffffffffffffffffffffffffffffffffffff168273ffffffffffffffffffffffffffffffffffffffff1603611e9b576040517f08c379a0000000000000000000000000000000000000000000000000000000008152600401611e9290613b3e565b60405180910390fd5b611ea48161195d565b15611ee4576040517f08c379a0000000000000000000000000000000000000000000000000000000008152600401611edb90613baa565b60405180910390fd5b611ef2600083836001611bb0565b611efb8161195d565b15611f3b576040517f08c379a0000000000000000000000000000000000000000000000000000000008152600401611f3290613baa565b60405180910390fd5b6001600360008473ffffffffffffffffffffffffffffffffffffffff1673ffffffffffffffffffffffffffffffffffffffff16815260200190815260200160002060008282540192505081905550816002600083815260200190815260200160002060006101000a81548173ffffffffffffffffffffffffffffffffffffffff021916908373ffffffffffffffffffffffffffffffffffffffff160217905550808273ffffffffffffffffffffffffffffffffffffffff16600073ffffffffffffffffffffffffffffffffffffffff167fddf252ad1be2c89b69c2b068fc378daa952ba7f163c4a11628f55a4df523b3ef60405160405180910390a4612045600083836001611bb6565b5050565b6000807f7fffffffffffffffffffffffffffffff5d576e7357a4501ddfe92f46681b20a08360001c1115612084576000600391509150612122565b6000600187878787604051600081526020016040526040516120a99493929190613bff565b6020604051602081039080840390855afa1580156120cb573d6000803e3d6000fd5b505050602060405103519050600073ffffffffffffffffffffffffffffffffffffffff168173ffffffffffffffffffffffffffffffffffffffff160361211957600060019250925050612122565b80600092509250505b94509492505050565b6000808273ffffffffffffffffffffffffffffffffffffffff163b119050919050565b60606000600161215d8461221c565b01905060008167ffffffffffffffff81111561217c5761217b6125e5565b5b6040519080825280601f01601f1916602001820160405280156121ae5781602001600182028036833780820191505090505b509050600082602001820190505b600115612211578080600190039150507f3031323334353637383961626364656600000000000000000000000000000000600a86061a8153600a8581612205576122046130c4565b5b049450600085036121bc575b819350505050919050565b600080600090507a184f03e93ff9f4daa797ed6e38ed64bf6a1f010000000000000000831061227a577a184f03e93ff9f4daa797ed6e38ed64bf6a1f01000000000000000083816122705761226f6130c4565b5b0492506040810190505b6d04ee2d6d415b85acef810000000083106122b7576d04ee2d6d415b85acef810000000083816122ad576122ac6130c4565b5b0492506020810190505b662386f26fc1000083106122e657662386f26fc1000083816122dc576122db6130c4565b5b0492506010810190505b6305f5e100831061230f576305f5e1008381612305576123046130c4565b5b0492506008810190505b612710831061233457612710838161232a576123296130c4565b5b0492506004810190505b60648310612357576064838161234d5761234c6130c4565b5b0492506002810190505b600a8310612366576001810190505b80915050919050565b6000604051905090565b600080fd5b600080fd5b60007fffffffff0000000000000000000000000000000000000000000000000000000082169050919050565b6123b881612383565b81146123c357600080fd5b50565b6000813590506123d5816123af565b92915050565b6000602082840312156123f1576123f0612379565b5b60006123ff848285016123c6565b91505092915050565b60008115159050919050565b61241d81612408565b82525050565b60006020820190506124386000830184612414565b92915050565b600081519050919050565b600082825260208201905092915050565b60005b8381101561247857808201518184015260208101905061245d565b60008484015250505050565b6000601f19601f8301169050919050565b60006124a08261243e565b6124aa8185612449565b93506124ba81856020860161245a565b6124c381612484565b840191505092915050565b600060208201905081810360008301526124e88184612495565b905092915050565b6000819050919050565b612503816124f0565b811461250e57600080fd5b50565b600081359050612520816124fa565b92915050565b60006020828403121561253c5761253b612379565b5b600061254a84828501612511565b91505092915050565b600073ffffffffffffffffffffffffffffffffffffffff82169050919050565b600061257e82612553565b9050919050565b61258e81612573565b82525050565b60006020820190506125a96000830184612585565b92915050565b6125b881612573565b81146125c357600080fd5b50565b6000813590506125d5816125af565b92915050565b600080fd5b600080fd5b7f4e487b7100000000000000000000000000000000000000000000000000000000600052604160045260246000fd5b61261d82612484565b810181811067ffffffffffffffff8211171561263c5761263b6125e5565b5b80604052505050565b600061264f61236f565b905061265b8282612614565b919050565b600067ffffffffffffffff82111561267b5761267a6125e5565b5b61268482612484565b9050602081019050919050565b82818337600083830152505050565b60006126b36126ae84612660565b612645565b9050828152602081018484840111156126cf576126ce6125e0565b5b6126da848285612691565b509392505050565b600082601f8301126126f7576126f66125db565b5b81356127078482602086016126a0565b91505092915050565b60008060006060848603121561272957612728612379565b5b6000612737868287016125c6565b935050602084013567ffffffffffffffff8111156127585761275761237e565b5b612764868287016126e2565b925050604061277586828701612511565b9150509250925092565b612788816124f0565b82525050565b60006020820190506127a3600083018461277f565b92915050565b600080604083850312156127c0576127bf612379565b5b60006127ce858286016125c6565b92505060206127df85828601612511565b9150509250929050565b600067ffffffffffffffff821115612804576128036125e5565b5b61280d82612484565b9050602081019050919050565b600061282d612828846127e9565b612645565b905082815260208101848484011115612849576128486125e0565b5b612854848285612691565b509392505050565b600082601f830112612871576128706125db565b5b813561288184826020860161281a565b91505092915050565b600080600080608085870312156128a4576128a3612379565b5b60006128b2878288016125c6565b945050602085013567ffffffffffffffff8111156128d3576128d261237e565b5b6128df878288016126e2565b93505060406128f087828801612511565b925050606085013567ffffffffffffffff8111156129115761291061237e565b5b61291d8782880161285c565b91505092959194509250565b60008060006060848603121561294257612941612379565b5b6000612950868287016125c6565b9350506020612961868287016125c6565b925050604061297286828701612511565b9150509250925092565b6000806040838503121561299357612992612379565b5b60006129a185828601612511565b92505060206129b285828601612511565b9150509250929050565b60006040820190506129d16000830185612585565b6129de602083018461277f565b9392505050565b6000602082840312156129fb576129fa612379565b5b6000612a09848285016125c6565b91505092915050565b612a1b81612408565b8114612a2657600080fd5b50565b600081359050612a3881612a12565b92915050565b60008060408385031215612a5557612a54612379565b5b6000612a63858286016125c6565b9250506020612a7485828601612a29565b9150509250929050565b60008060008060808587031215612a9857612a97612379565b5b6000612aa6878288016125c6565b9450506020612ab7878288016125c6565b9350506040612ac887828801612511565b925050606085013567ffffffffffffffff811115612ae957612ae861237e565b5b612af58782880161285c565b91505092959194509250565b60008060408385031215612b1857612b17612379565b5b6000612b26858286016125c6565b9250506020612b37858286016125c6565b9150509250929050565b7f4e487b7100000000000000000000000000000000000000000000000000000000600052602260045260246000fd5b60006002820490506001821680612b8857607f821691505b602082108103612b9b57612b9a612b41565b5b50919050565b7f526f79616c7479206d757374206265203c3d203130302520283130303030206260008201527f6173697320706f696e7473290000000000000000000000000000000000000000602082015250565b6000612bfd602c83612449565b9150612c0882612ba1565b604082019050919050565b60006020820190508181036000830152612c2c81612bf0565b9050919050565b7f4e487b7100000000000000000000000000000000000000000000000000000000600052601160045260246000fd5b6000612c6d826124f0565b91507fffffffffffffffffffffffffffffffffffffffffffffffffffffffffffffffff8203612c9f57612c9e612c33565b5b600182019050919050565b7f4552433732313a20617070726f76616c20746f2063757272656e74206f776e6560008201527f7200000000000000000000000000000000000000000000000000000000000000602082015250565b6000612d06602183612449565b9150612d1182612caa565b604082019050919050565b60006020820190508181036000830152612d3581612cf9565b9050919050565b7f4552433732313a20617070726f76652063616c6c6572206973206e6f7420746f60008201527f6b656e206f776e6572206f7220617070726f76656420666f7220616c6c000000602082015250565b6000612d98603d83612449565b9150612da382612d3c565b604082019050919050565b60006020820190508181036000830152612dc781612d8b565b9050919050565b7f526f79616c747920746f6f206869676800000000000000000000000000000000600082015250565b6000612e04601083612449565b9150612e0f82612dce565b602082019050919050565b60006020820190508181036000830152612e3381612df7565b9050919050565b60008160601b9050919050565b6000612e5282612e3a565b9050919050565b6000612e6482612e47565b9050919050565b612e7c612e7782612573565b612e59565b82525050565b600081905092915050565b6000612e988261243e565b612ea28185612e82565b9350612eb281856020860161245a565b80840191505092915050565b6000819050919050565b612ed9612ed4826124f0565b612ebe565b82525050565b6000612eeb8286612e6b565b601482019150612efb8285612e8d565b9150612f078284612ec8565b602082019150819050949350505050565b7f496e76616c6964207369676e6174757265000000000000000000000000000000600082015250565b6000612f4e601183612449565b9150612f5982612f18565b602082019050919050565b60006020820190508181036000830152612f7d81612f41565b9050919050565b7f4552433732313a2063616c6c6572206973206e6f7420746f6b656e206f776e6560008201527f72206f7220617070726f76656400000000000000000000000000000000000000602082015250565b6000612fe0602d83612449565b9150612feb82612f84565b604082019050919050565b6000602082019050818103600083015261300f81612fd3565b9050919050565b7f546f6b656e20646f6573206e6f74206578697374000000000000000000000000600082015250565b600061304c601483612449565b915061305782613016565b602082019050919050565b6000602082019050818103600083015261307b8161303f565b9050919050565b600061308d826124f0565b9150613098836124f0565b92508282026130a6816124f0565b915082820484148315176130bd576130bc612c33565b5b5092915050565b7f4e487b7100000000000000000000000000000000000000000000000000000000600052601260045260246000fd5b60006130fe826124f0565b9150613109836124f0565b925082613119576131186130c4565b5b828204905092915050565b7f4552433732313a20696e76616c696420746f6b656e2049440000000000000000600082015250565b600061315a601883612449565b915061316582613124565b602082019050919050565b600060208201905081810360008301526131898161314d565b9050919050565b7f4552433732313a2061646472657373207a65726f206973206e6f74206120766160008201527f6c6964206f776e65720000000000000000000000000000000000000000000000602082015250565b60006131ec602983612449565b91506131f782613190565b604082019050919050565b6000602082019050818103600083015261321b816131df565b9050919050565b7f4f776e61626c653a206e6577206f776e657220697320746865207a65726f206160008201527f6464726573730000000000000000000000000000000000000000000000000000602082015250565b600061327e602683612449565b915061328982613222565b604082019050919050565b600060208201905081810360008301526132ad81613271565b9050919050565b7f4f776e61626c653a2063616c6c6572206973206e6f7420746865206f776e6572600082015250565b60006132ea602083612449565b91506132f5826132b4565b602082019050919050565b60006020820190508181036000830152613319816132dd565b9050919050565b7f45524337323155524953746f726167653a2055524920736574206f66206e6f6e60008201527f6578697374656e7420746f6b656e000000000000000000000000000000000000602082015250565b600061337c602e83612449565b915061338782613320565b604082019050919050565b600060208201905081810360008301526133ab8161336f565b9050919050565b60008190508160005260206000209050919050565b60006020601f8301049050919050565b600082821b905092915050565b6000600883026134147fffffffffffffffffffffffffffffffffffffffffffffffffffffffffffffffff826133d7565b61341e86836133d7565b95508019841693508086168417925050509392505050565b6000819050919050565b600061345b613456613451846124f0565b613436565b6124f0565b9050919050565b6000819050919050565b61347583613440565b61348961348182613462565b8484546133e4565b825550505050565b600090565b61349e613491565b6134a981848461346c565b505050565b5b818110156134cd576134c2600082613496565b6001810190506134af565b5050565b601f821115613512576134e3816133b2565b6134ec846133c7565b810160208510156134fb578190505b61350f613507856133c7565b8301826134ae565b50505b505050565b600082821c905092915050565b600061353560001984600802613517565b1980831691505092915050565b600061354e8383613524565b9150826002028217905092915050565b6135678261243e565b67ffffffffffffffff8111156135805761357f6125e5565b5b61358a8254612b70565b6135958282856134d1565b600060209050601f8311600181146135c857600084156135b6578287015190505b6135c08582613542565b865550613628565b601f1984166135d6866133b2565b60005b828110156135fe578489015182556001820191506020850194506020810190506135d9565b8683101561361b5784890151613617601f891682613524565b8355505b6001600288020188555050505b505050505050565b7f4552433732313a207472616e736665722066726f6d20696e636f72726563742060008201527f6f776e6572000000000000000000000000000000000000000000000000000000602082015250565b600061368c602583612449565b915061369782613630565b604082019050919050565b600060208201905081810360008301526136bb8161367f565b9050919050565b7f4552433732313a207472616e7366657220746f20746865207a65726f2061646460008201527f7265737300000000000000000000000000000000000000000000000000000000602082015250565b600061371e602483612449565b9150613729826136c2565b604082019050919050565b6000602082019050818103600083015261374d81613711565b9050919050565b7f4552433732313a20617070726f766520746f2063616c6c657200000000000000600082015250565b600061378a601983612449565b915061379582613754565b602082019050919050565b600060208201905081810360008301526137b98161377d565b9050919050565b7f4552433732313a207472616e7366657220746f206e6f6e20455243373231526560008201527f63656976657220696d706c656d656e7465720000000000000000000000000000602082015250565b600061381c603283612449565b9150613827826137c0565b604082019050919050565b6000602082019050818103600083015261384b8161380f565b9050919050565b600061385e8285612e8d565b915061386a8284612e8d565b91508190509392505050565b7f4e487b7100000000000000000000000000000000000000000000000000000000600052602160045260246000fd5b7f45434453413a20696e76616c6964207369676e61747572650000000000000000600082015250565b60006138db601883612449565b91506138e6826138a5565b602082019050919050565b6000602082019050818103600083015261390a816138ce565b9050919050565b7f45434453413a20696e76616c6964207369676e6174757265206c656e67746800600082015250565b6000613947601f83612449565b915061395282613911565b602082019050919050565b600060208201905081810360008301526139768161393a565b9050919050565b7f45434453413a20696e76616c6964207369676e6174757265202773272076616c60008201527f7565000000000000000000000000000000000000000000000000000000000000602082015250565b60006139d9602283612449565b91506139e48261397d565b604082019050919050565b60006020820190508181036000830152613a08816139cc565b9050919050565b600081519050919050565b600082825260208201905092915050565b6000613a3682613a0f565b613a408185613a1a565b9350613a5081856020860161245a565b613a5981612484565b840191505092915050565b6000608082019050613a796000830187612585565b613a866020830186612585565b613a93604083018561277f565b8181036060830152613aa58184613a2b565b905095945050505050565b600081519050613abf816123af565b92915050565b600060208284031215613adb57613ada612379565b5b6000613ae984828501613ab0565b91505092915050565b7f4552433732313a206d696e7420746f20746865207a65726f2061646472657373600082015250565b6000613b28602083612449565b9150613b3382613af2565b602082019050919050565b60006020820190508181036000830152613b5781613b1b565b9050919050565b7f4552433732313a20746f6b656e20616c7265616479206d696e74656400000000600082015250565b6000613b94601c83612449565b9150613b9f82613b5e565b602082019050919050565b60006020820190508181036000830152613bc381613b87565b9050919050565b6000819050919050565b613bdd81613bca565b82525050565b600060ff82169050919050565b613bf981613be3565b82525050565b6000608082019050613c146000830187613bd4565b613c216020830186613bf0565b613c2e6040830185613bd4565b613c3b6060830184613bd4565b9594505050505056fea2646970667358221220dc84d4d2b4cde5a3100230052cb162b2ea72300a716e1a4c47aa53861dc8918564736f6c634300081c0033",
  "linkReferences": {},
  "deployedLinkReferences": {}
}